:020000040800F2
:10000000900D0020A10100081531000829280008E2
:1000100011310008490B00080137000800000000FA
:10002000000000000000000000000000F53600089D
:1000300031120008000000000D360008F9360008F3
:10004000BB010008BB010008BB010008BB010008A0
:10005000BB010008BB01000835120008BB01000805
:10006000BB010008BB010008BB010008BB01000880
:10007000BB010008BB010008BB010008BB01000870
:10008000BB010008BB010008BB010008BB01000860
:10009000BB010008BB010008BB010008BB01000850
:1000A000BB010008BB010008BB010008BB01000840
:1000B000BB010008BB010008BB010008BB01000830
:1000C000BB010008BB010008BB010008BB01000820
:1000D000BB010008BB010008BB010008BB01000810
:1000E0003D120008BB010008BB01000800F002F847
:1000F00000F047F80AA090E8000C82448344AAF17B
:100100000107DA4501D100F03CF8AFF2090EBAE878
:100110000F0013F0010F18BFFB1A43F0010318473B
:10012000A8480000C8480000103A24BF78C878C129
:10013000FAD8520724BF30C830C144BF04680C60ED
:10014000704700000023002400250026103A28BF35
:1001500078C1FBD8520728BF30C148BF0B60704739
:10016000662904F0D083002070471FB500F076FBAD
:1001700004000020002104F00DF9E0601FBD10B55F
:1001800010BD00F06BFC1146FFF7EFFF03F0D0FA53
:1001900000F089FC03B4FFF7F2FF03BC00F0CCFCD5
:1001A0000948804709480047FEE7FEE7FEE7FEE70B
:1001B000FEE7FEE7FEE7FEE7FEE7FEE70448054947
:1001C000054A064B70470000FD360008ED000008A8
:1001D00090010020900D002090090020900900203F
:1001E0000FB41CB5074B06AA7B44694600900598DE
:1001F00000F0F5FA0020694600F004FB1CBC5DF835
:1002000014FB0000190600002DE9F0474FF0000A2A
:1002100089460446C0F820A02046E16888470028A7
:1002200076D0252806D0D4E901219047206A401CC9
:100230002062F1E7E168204600258847C4F81CA049
:1002400006460027C4F818A02A2E09D0304604F02C
:1002500099F838B304EB8708303EC8F8186019E005
:1002600059F8041B204604EB87029161E168884736
:10027000012F064618D1E069002820DA25F0200574
:100280001DE0D8F8180000EB800006EB4000303885
:10029000C8F818002046E1688847064604F072F85E
:1002A0000028EED1012F0AD02E2E08D12046E16879
:1002B00088477F1C0646022F45F02005C4DBA06955
:1002C000002803DA404245F00105A061E80701D0AB
:1002D00025F01005B6B1A6F14100192802D8203644
:1002E00045F400654A463146204625604D46FFF7F5
:1002F00037FF58B1012806D0ED1D25F0070000F1A9
:10030000080989E704E005F1040985E730468AE732
:10031000206ABDE8F08710B5431C02E010F8011B0D
:1003200071B18107FAD14FF0013202C88C1A8C43A7
:1003300014EAC211F9D0C01A0A0603D0C01E10BDBB
:10034000C01A10BD0A0401D0801E10BD0902FCD0E5
:10035000401E10BD421E12F8013F002BFBD111F8C8
:10036000013B002B02F8013BF9D170474FF000022E
:100370000429C0F0128010F0030C00F04A82CCF186
:10038000040CBCF1020F18BF00F8012BA8BF20F825
:10039000022BA1EB0C0100F03CBA5FEAC17C24BF48
:1003A00000F8012B00F8012B48BF00F8012B704723
:1003B0007047704770472DE9FF4F0C461E464FF0BF
:1003C000FF378BB0D2E90001DDF860800A908A46E1
:1003D000C1F30A5505B93D46002108464FF000001B
:1003E000BAF1000F00F4400005DA00EB80004FF492
:1003F000400101EA50004FEA9059B9F1010F00DDC8
:10040000B9460A9850EA4A000ED044F61050A5F2B8
:10041000FF3545432F14B8F1000F1ED07542291E39
:100420001EDDC9F100021CE0B8F1010F4FF0000021
:1004300001D0302103E0F24305E02154401CB042DA
:10044000FBDB30460022002121540B99C1F80880C3
:10045000C1E900200FB0BDE8F08FBD1B6D1CDEE7C9
:100460004A4600DA694206A800F082FA06AB93E831
:10047000070003AB83E8070050460A9903F0A6FB88
:100480008DE80700A0F500501F3800900398002D5C
:100490000ADD42F21F014A460844002303A90390E3
:1004A000684603F00FFE09E0A0F500504A461F38E9
:1004B000002303A90390684603F019FE8DE80700A6
:1004C0000004000C03D04FF0FF30410800E010465C
:1004D000B8F1000F03D00022009215461EE0751EF1
:1004E00005D400F0BFF9303262556D1EF9D5B34620
:1004F0000122084302D000227F1C04E0207830282B
:1005000001D100227F1E002A099784D01DE0112D01
:1005100007DA00F0A7F9303262556D1C50EA01028B
:10052000F5D1084302D00098C8B10EE00021681E42
:1005300005E0235C625C63542254401E491C8142E6
:10054000F7DBAB46A81B401E0990002004F80B0007
:100550000B98099AC0F80880C0E9002B7AE71126A9
:100560004FF0000857E72DE9F04F88460446D21DAA
:1005700022F0070191B0D1E90001CDE90A0103F0B1
:10058000EDFE02460B98C00F01D02D2007E0206839
:10059000810701D52B2002E0202101EAC000032AB7
:1005A000099001D0072A05DB03464146204600F0AA
:1005B0009FF90BE12078800601D5E06900E0062074
:1005C000B8F1650F814606D0B8F1660F18D0B8F1C2
:1005D000670F70D131E00020B9F1110F009001DBFD
:1005E000112301E009F101030AAA01A90CA8FFF7F0
:1005F000E2FEDDE90C70002609F10105834647E0C3
:1006000001204B4600904FF000470AAA01A90CA810
:10061000FFF7D1FEDDE90DB00C995D46002610B95B
:1006200009F101000D18B9EB050003D4C0F1FF3644
:1006300009F10105A5EB09002BE0B9F1010F01DA81
:100640004FF001090020B9F1110F0090484601DD7B
:10065000112300E003460AAA01A90CA8FFF7ABFE8C
:10066000DDE90C704D4600268346207800070AD449
:10067000AB4500DA5D4601A8012D04DD411911F8F2
:10068000011C302907D04F4502DA17F1040F04DAB4
:10069000012082460FE06D1EEEE7002F02DCED1B0D
:1006A0003E4403E0781CA84200DD7D1CB81B00F12D
:1006B000010A4FF000472078000703D4AA4501DB68
:1006C0004FF0FF3A0021B7F1004F0DF143088DF8CC
:1006D000431024D002202B23002F01DA7F422D2348
:1006E0000A21021EA0F1010000DC5FB197FBF1FCC2
:1006F00097FBF1F201FB1C7C17460CF1300C08F85B
:1007000001CDEEE7A8F1010003702188090501D5AC
:10071000452100E06521A0F1010800F8011C0998BD
:100720000FA9A1EB0807FF1D00B10120411901EB42
:10073000EA70A1693844081A401EA0612078C006FA
:1007400002D42046AFF30080099828B1D4E90121F2
:100750009047206A401C20622078C00622D520469F
:10076000AFF300801EE0002E04DBB34502DD01A8DC
:10077000805D00E03020D4E901219047206A401CD0
:100780002062761CAAF101005FEA000A0AD100F09B
:1007900065F8C0680168405CD4E901219047206A8F
:1007A000401C2062281EA5F10105DCDC07E0D4E92D
:1007B000012118F8010B9047206A401C2062381E66
:1007C000A7F10107F3DC2046AFF30080032011B04E
:1007D00041E6000001694A1C02610878704700B5D3
:1007E0008FB0CDE901310021059105497944CDE96A
:1007F000031011466846FFF707FD0FB000BD00006B
:10080000E5FFFFFF0A6802F8010B0A6070474FF02E
:10081000000200B5134694469646203922BFA0E850
:100820000C50A0E80C50B1F12001BFF4F7AF09075C
:1008300028BFA0E80C5048BF0CC05DF804EB89004D
:1008400028BF40F8042B08BF704748BF20F8022B90
:1008500011F0804F18BF00F8012B70470048704717
:100860003000002030B5B0F10A0271F100034FEA08
:10087000900E4EEA817EB0EB0E0061EB91014FEAE3
:10088000101E4EEA017E10EB0E0041EB11114FEAF3
:10089000102E4EEA016E10EB0E0041EB11214FEAD3
:1008A000104E4EEA014E10EB0E0041EB1141401884
:1008B00041F100014FEAD00040EA41704FEAD10116
:1008C0004FEA810444EA907410EB800544EB010484
:1008D0006D1944EB0404521BA3414FF0000348BFC1
:1008E0000A3200D530BD401C41F1000130BD00008E
:1008F0002DE9F0411F46044603260168072A01F44A
:10090000006004DB08B116A505E016A503E008B1F8
:1009100015A500E015A521F010002060A069C01EFB
:10092000A0610FB1401EA0612046AFF300804FB11F
:10093000D4E9012138469047206A401C2062C01C3F
:10094000206206E0206AFAE7D4E9012115F8010BDC
:100950009047761EF8D22046AFF30080BDE8F081C4
:100960004E414E006E616E00494E4600696E660053
:100970002DE9F047814616468AB0354878440DC8BF
:100980008DE80D0032487844801C03AC0DC884E823
:100990000D0041F69B300844372190FBF1F290FBAB
:1009A000F1F5A5F1800501FB12041B3C02D5644260
:1009B000012000E00020DFF898A080460027FA44DC
:1009C000AAF1BE0A0EE0E0070AD03246684607EBFD
:1009D000470101230AEB810103F089FB8DE8070041
:1009E00064107F1C002CEED1194F7F44AE3F19E0FC
:1009F000E80715D007EB04100DF1180A90E80E0077
:100A00008AE80E00C068F04201D198190890324679
:100A1000012306A903A803F06AFB03AB83E80700E0
:100A20006D10641C002DE3D14FF00103324669467E
:100A3000B8F1000F03A802D003F044FB01E003F07B
:100A400056FBC9E90001C9F808200AB0BDE8F087E3
:100A50000840000000487047100000207546FFF76E
:100A6000F9FFAE4605006946534620F0070085466B
:100A700018B020B5FFF7A2FBBDE820404FF00006FC
:100A80004FF000074FF000084FF0000BAC46ACE809
:100A9000C009ACE8C009ACE8C009ACE8C00921F065
:100AA00007018D46704710B50446AFF3008020461D
:100AB000BDE81040FFF76EBB4FF0013C50F8042B2F
:100AC00051F8043B9A4221D1A2EB0C03934313EA61
:100AD000CC1317D150F8042B51F8043B9A4215D18E
:100AE000A2EB0C03934313EACC130BD150F8042B65
:100AF00051F8043B9A4209D1A2EB0C03934313EA49
:100B0000CC13DBD04FF00000704700BFD01A01BA01
:100B1000B1FA81F101F0180122FA01F0CB40DBB209
:100B2000C0B2C01AC1F120012CFA01F3D11A9143CD
:100B300011EAC311E6D1704701491820ABBEFEE7A8
:100B40002600020070470000FEE700002DE9F04F8C
:100B500085B08DB229464422044602F035FC0DF1E1
:100B6000040808F104064FF001094FF0000A4FF0A5
:100B7000020B00BF01A880E8200E2046414600F08D
:100B8000C3FB20462946002200F0D2FC052002F0DB
:100B9000B9FD20464146C6E900AAC6F808A001955D
:100BA00000F0B2FB0F2002F0ADFD2046294600F018
:100BB000B9FC0746322002F0A5FD002FDAD0012053
:100BC000029002200026049001A920460396019578
:100BD00000F09AFB20462946002200F0A9FC4FF4C1
:100BE000FA7002F08FFD01A92046CDE90366CDE938
:100BF000015600F089FB462002F084FD204629467C
:100C000000F090FC4FF4CD7002F07CFD05B0BDE823
:100C1000F08F00002DE9F04F85B08DB229464822B3
:100C2000044602F0D1FB0DF1040808F104064FF070
:100C300001094FF0000A4FF0020B00BF01A880E845
:100C4000200E2046414600F05FFB20462946002248
:100C500000F06EFC052002F055FD20464146C6E935
:100C600000AAC6F808A0019500F04EFB0F2002F084
:100C700049FD2046294600F055FC0746322002F087
:100C800041FD002FDAD001200290022000260490BE
:100C900001A920460396019500F036FB204629461F
:100CA000002200F045FC4FF4FA7002F02BFD01A980
:100CB0002046CDE90366CDE9015600F025FB46202C
:100CC00002F020FD2046294600F02CFC4FF4CD70A8
:100CD00002F018FD05B0BDE8F08F00002DE9F043EB
:100CE00081B0DDE908981C4615460E460746CDF84A
:100CF000009000F02DF8384631462A462346CDF8BC
:100D00000090FFF723FF384631462A462346CDF8A8
:100D1000009000F01DF8384631462A462346CDF8AB
:100D2000009000F0E1F840F27C10C2F20000008870
:100D300003F077FB0023C3F6B073002203F088FBB7
:100D400003F03EFBC8F8000001B0BDE8F0830000EE
:100D50002DE9F04F85B005460120029002200C4697
:100D60004FEA1169002704908EB201A928469A46DD
:100D700093464FEA12680397019600F0C5FA284699
:100D80003146002200F0D4FB4FF4FA7002F0BAFCB6
:100D900001A92846CDE90377CDE9016700F0B4FA4F
:100DA000462002F0AFFC2846314600F0BBFB4FF472
:100DB000CD7002F0A7FC28463146552202F004FB14
:100DC000C4F307422846314602F0FEFA284631466F
:100DD0004A4602F0F9FA5FFA8BF22846314602F0F1
:100DE000F3FACBF307222846314602F0EDFACBF3B3
:100DF00007422846314602F0E7FA28463146424685
:100E000002F0E2FA5FFA8AF22846314602F0DCFA92
:100E1000CAF307222846314602F0D6FA05B0BDE8EB
:100E2000F08F0000F0B585B0044605688688012083
:100E3000029002200027049001A9284603970196FA
:100E400000F062FA28463146002200F071FB4FF4B0
:100E5000FA7002F057FC01A92846CDE90377CDE9E5
:100E6000016700F051FA462002F04CFC284631465A
:100E700000F058FB4FF4CD7002F044FC2068A188CC
:100E8000332202F0A1FA2068A18802F045F9226815
:100E9000A188A071104602F03FF92268A188E07194
:100EA000104602F039F92268A1882072104602F03B
:100EB00033F92268A1886072104602F02DF9226889
:100EC000A188A072104602F027F92268A188E0727A
:100ED000104602F021F92268A1882073104602F022
:100EE0001BF9607305B0F0BD70B584B08DB22946B2
:100EF000BE22044602F068FA2046294602F00CF9A8
:100F000040F27C16C2F2000630702046294602F0FC
:100F100003F970702046294602F0FEF8B0702046B2
:100F2000294602F0F9F8F0702046294602F0F4F85C
:100F300030712046294602F0EFF8707120462946AC
:100F400002F0EAF8B0712046294602F0E5F8F071A7
:100F50002046294602F0E0F830720120019002207C
:100F600000260390694620460296009500F0CCF9D1
:100F700020462946002200F0DBFA4FF4FA7002F016
:100F8000C1FB69462046CDE90266CDE9005600F076
:100F9000BBF9462002F0B6FB2046294600F0C2FA13
:100FA0004FF4CD7002F0AEFB04B070BD2DE9F04FF0
:100FB00089B007460120069002200E46DDF848B0B1
:100FC000002508908CB205A93846984691460795A9
:100FD000059400F099F938462146002200F0A8FA5D
:100FE0004FF4FA7002F08EFBCDE90755CDE90545C7
:100FF00005AD3846294600F087F9462002F082FB0D
:101000003846214600F08EFA4FF4CD7002F07AFB9C
:1010100038462146CC2202F0D7F9384631464A46B6
:1010200043460296CDF80C90CDF81080CDF800B074
:10103000FFF75AFFDDF808A0DDF8109005F1040B6A
:10104000002500BF139940F27C10C2F2000001712C
:101050000120CDE90605022005AE0890384631464C
:10106000059400F051F938462146002200F060FA5C
:101070004FF4FA7002F046FB38463146CBE9005592
:10108000CBF80850059400F03FF9462002F03AFBF7
:101090003846214600F046FA4FF4CD7002F032FB9C
:1010A00038462146CC2202F08FF9039EDDF84880B5
:1010B0003846514632464B46CDF8008000F074F871
:1010C0000120CDE9060502200DF1140808903846EC
:1010D0004146059400F018F938462146002200F0F8
:1010E00027FA4FF4FA7002F00DFB38464146CBE97F
:1010F0000055CBF80850059400F006F9462002F0A0
:1011000001FB3846214600F00DFA4FF4CD7002F095
:10111000F9FA38462146CC2202F056F93246129EA0
:10112000384651464B460096FFF7DEFE40F27C10F3
:10113000C2F2000000791399884283D10120069001
:1011400002200025089005A938460795059400F06F
:10115000DBF838462146002200F0EAF94FF4FA7035
:1011600002F0D0FA05A93846CDE90755CDE9054585
:1011700000F0CAF8462002F0C5FA3846214600F0D1
:10118000D1F94FF4CD7002F0BDFA38462146CC2299
:1011900002F01AF902AB38460ECB129F0097FFF708
:1011A00039FD09B0BDE8F08F70B584B08DB2294625
:1011B0004E22044602F008F940F27C16C2F2000604
:1011C000B2782046294602F0FFF8F27820462946F8
:1011D00002F0FAF832792046294602F0F5F80120AB
:1011E0000190022000260390694620460296009551
:1011F00000F08AF820462946002200F099F94FF4C1
:10120000FA7002F07FFA69462046CDE90266CDE920
:10121000005600F079F8462002F074FA204629467C
:1012200000F080F94FF4CD7002F06CFA04B070BD9C
:1012300070470000012000F05BB800004FF48060B0
:1012400000F056B8B0B5044600F078F9054640F213
:101250000400C2F200000078611C18BF044400BF03
:1012600000F06CF9401BA042FAD3B0BD10B5B0F548
:10127000806F3BD140F27004C2F2000404F14000E0
:1012800004F11601142201F019FD78B3A07DFF28A6
:1012900004D060685A30606010BD00BFE07D10F07F
:1012A000FD0F03D060681E30606010BD207E3128C5
:1012B0001AD0302818BF10BD607EA17E00EB8000E0
:1012C000E27E01EB400040F20001237FA0F50470B4
:1012D000C2F20001088002EB820003EB4000A0F59F
:1012E0000470488010BD00BF0120207010BD0000B8
:1012F00040F21441C4F201010A68024214BF0860BE
:101300007047FFF7B3BF00002DE9F04F82B00E68C1
:10131000002E00F0038141F20042C4F201020423D6
:1013200040F2004E904208BF03234FF6FF7CC4F208
:10133000010E009300240123C1F2100C4FF0000AAB
:101340004FF0000949E000BF012704F00C030F2211
:101350009A402BEA020207FA03F34FEA9A051A436E
:1013600046F82520D1F804B040F20C455FEACB22C4
:10137000DEF8082054BF22EA080242EA0802C4F25A
:101380000105CEF808202A685FEA8B2354BF22EAC1
:10139000080242EA08022A605FEA8B33DEF8042082
:1013A00054BF22EA080242EA08025FEACB33CEF8D1
:1013B0000420DEF800204FF0010354BF22EA0802A7
:1013C00042EA0802CEF800200E680AF1010A36FA55
:1013D0000AF204F1040400F0A18003FA0AF816EA04
:1013E000080FF1D04E68664512DC122E56D8DFE8A1
:1013F00006F0350B454955555555555555555555D7
:101400005555554D510000BFD1F80C9046E000BF36
:101410004FF6FF72C1F2210296420FDC0022C1F2A8
:10142000110296421AD00022C1F21202964215D041
:101430000022C1F22102964210D02FE00022C1F218
:10144000220296420AD00022C1F23102964205D011
:101450000022C1F23202964220D100BF8A684AB10E
:10146000012A14BFC0F81480C0F810804FF008099A
:1014700014E000BF4FF0040910E000BFCA6802F199
:1014800008090BE04FF0000908E000BFCA6802F14C
:10149000040903E0CA6802F10C0900BF22460646AF
:1014A000BAF1080F24BF203A043637680F2595405B
:1014B00027EA050509FA02F22A433260CA79D20600
:1014C0007FF582AF41F21803C4F202031A68AEF549
:1014D0007E7642F001021A601A6802F0010201925F
:1014E000019A2AF0030256F802B040F60002C4F254
:1014F0000102904210D040F60042C4F20102904234
:101500003FF422AF41F20002C4F20102009F904278
:1015100008BF022719E700BF002716E702B0BDE8A1
:10152000F08F00008068084018BF0120704700005D
:10153000002A08BF090401617047000040F28810CA
:10154000C2F200000068704740F2040040F28811C7
:10155000C2F20000C2F2000100780A68104408607C
:101560007047000080B542F20000C4F2020001683A
:1015700041F010010160032000F08EF80F2000F010
:1015800005F800F027F8002080BD000070B540F29B
:101590000406C2F2000640F20C013278C2F20001E9
:1015A0004FF47A730968B3FBF2F20446B1FBF2F12F
:1015B000084600F049FF0F2C4FF0010508D838B954
:1015C0004FF0FF3021460022002500F039F874600A
:1015D000284670BD82B041F21800C4F202000168D2
:1015E000022241F001010160016801F00101019155
:1015F0000199416841F080514160406800F080509D
:10160000009000980420C4F20100016862F31A619E
:10161000016002B070470000002848BF7047C1B2A7
:1016200000F01F00012202FA00F04EF20012CEF28A
:10163000000242EAD10121F0030108607047000076
:1016400010B54EF60C5CCEF2000CDCF80030C3F3A3
:10165000022E8EF00704042C28BF0424BEF10303DD
:101660004FF0FF3E0EFA04F438BF0023A143994027
:101670000EFA03F39A43114300F00F0200F16043A6
:101680000901043A03F564436244002848BF02F1AB
:101690000C03197010BD00004EF60C51CEF2000183
:1016A0000A684FF6FF031A4060F30A2242F0806096
:1016B00040F0FD70086070474EF61050CEF200000A
:1016C0000268012922F0040202600FBF30BF40BF50
:1016D00020BF20BF704700002DE9F04381B00028F3
:1016E00000F0858042F20008C4F202080446D8F8EF
:1016F00000000D4600F0070088420CD2D8F8000028
:1017000020F007002843C8F80000D8F8000000F0D7
:101710000700A8426BD1206841F204098107C4F296
:10172000020917D5410705D5D9F8001041F4E06149
:10173000C9F80010010705D5D9F8001041F460512F
:10174000C9F80010D9F80010A26821F0F001114387
:10175000C9F80010C00741D1D8F8000000F0070018
:10176000A8420CD9D8F8000020F007002843C8F898
:101770000000D8F8000000F00700A84237D1206828
:10178000410707D5D9F80010E26821F4E061114360
:10179000C9F80010000708D5D9F80000216920F425
:1017A000605040EAC100C9F80000D9F8002002F0FA
:1017B0000C00082841F20020C0F27A0050D144F613
:1017C000B213C2F38341C0F60003595CD2033BD489
:1017D00040F60010C0F23D00484341E06068022836
:1017E0000AD001282AD159F8041C890308D4012001
:1017F00001B0BDE8F08300BF59F8041C8901F6D59B
:10180000D9F8001021F003010843C9F80000FFF7E0
:1018100095FE064641F28837D9F80000616800F06D
:101820000C00B0EB810F97D0FFF788FE801BB84209
:10183000F2D9032001B0BDE8F08300BF59F8041CC1
:101840008907D4D5DCE700BFD9F8002044F6B013EF
:10185000C2F34042C0F600039A5C4843B0FBF2F08A
:10186000D9F8001044F6A012C1F30311C0F600022B
:10187000515C40F20C0220FA01F140F20800C2F281
:1018800000000068C2F200021160FFF77FFE002036
:1018900001B0BDE8F08300002DE9F04182B00028DE
:1018A00068D00446007841F20006C007C4F2020680
:1018B00025D0706800F00C0004281BD0706800F080
:1018C0000C00082802D17068C00313D46068002897
:1018D00000F06881B0F5A02F00F07C81B0F5803F6A
:1018E00000F07C81306820F480303060306820F473
:1018F000802076E13068800301D56068D0B320781D
:10190000800718D5706810F00C0F07D0706800F0D1
:101910000C0008286ED17068C0036BD43068800753
:1019200002D52069012825D13068616920F0F800CE
:1019300040EAC1003060207800071FD420784007BB
:1019400032D4E56995B1706800F00C00082840F0C9
:101950008F80012D0ED07068216A00F480328A4297
:1019600008D1616A00F47010884203D1002002B0EF
:10197000BDE8F081012002B0BDE8F081A069002837
:1019800062D00020C4F242200121C0F88014FFF789
:10199000D5FD0546706A800700F18C80FFF7CEFD0B
:1019A000401B0228F6D92AE1F06910F0805808D1CE
:1019B000F06940F08050F061F06900F080500090D4
:1019C000009847F20007C4F200073868C00529D420
:1019D000386840F480703860FFF7B0FD054600BFFE
:1019E0003868C0051ED4FFF7A9FD401B6428F7D94D
:1019F00005E100BF2069002840F20000C4F2422047
:101A000000F0828001210160FFF798FD054600BFCC
:101A1000306880073FF588AFFFF790FD401B022834
:101A2000F6D9ECE0E068002800F08080052800F09E
:101A30009780012800F09880306A20F00100306221
:101A4000306A20F0040092E00020C4F2422000211D
:101A5000C0F88014FFF772FD054600BF706A80076A
:101A60007FF56CAFFFF76AFD401B0228F6D9C6E090
:101A70000027C4F2422700203866FFF75FFD022DE1
:101A800005460BD13068800140F1BE80FFF756FD5E
:101A9000401B02284FF00300F4D968E7306880014A
:101AA0007FF564AFFFF74AFD401B02284FF00300AB
:101AB000F4D95CE740F20C00C2F20000006844F682
:101AC000D351C1F26201A0FB0101480A019000BF9D
:101AD00000BF0198411E002801913FF42FAF00BFC5
:101AE0000198411E002801913FF428AF00BF0198E2
:101AF000411E002801913FF421AF00BF0198411E13
:101B000000280191E4D119E700210160FFF716FDDB
:101B1000054600BF306880077FF50DAFFFF70EFD6B
:101B2000401B02284FF00300F4D920E7306A20F070
:101B300001003062306A20F004003062FFF7FEFCE2
:101B4000054641F2883700BF306A800720D5FFF78D
:101B5000F5FC401BB8424FF00300F5D907E700BF82
:101B6000306A40F004003062306A40F001003062B8
:101B7000FFF7E4FC054641F2883700BF306A800772
:101B800006D4FFF7DBFC401BB842F7D937E000BFB3
:101B9000B8F1000F7FF4D5AEF06920F08050F0610D
:101BA000CFE600BF306820F480303060306820F429
:101BB00080203060FFF7C2FC054600BF306880031C
:101BC0007FF59DAEFFF7BAFC401B64284FF0030081
:101BD000F4D9CCE6306840F480203060306840F4BE
:101BE00080303060FFF7AAFC054600BF30688003F4
:101BF0003FF585AEFFF7A2FC401B6428F6D9032011
:101C000002B0BDE8F08100BF206AB0F5803F05D189
:101C10007168A26821F40031114371607168626AD1
:101C200021F4741111430843706001203866FFF7F6
:101C300085FC0446306880013FF598AEFFF77EFCD6
:101C4000001B02284FF00300F4D990E64EF210007A
:101C5000CEF20000016841F002010160704700000F
:101C600090F851007047000070B538B10446406AE2
:101C700030B10020206104F1140007E0012070BDA4
:101C80006068B0F5827F03D004F11C000021016080
:101C90000026A66294F8510020B9204684F85060CE
:101CA00000F038F8022084F8510094E8071001F49D
:101CB0008271036802F4044223F040030360236945
:101CC00011440CF40062114403F0020263691144F0
:101CD00003F00102A369E569114403F400721144A1
:101CE00005F03802256A114405F08002A56A114307
:101CF00005F4005211430160042101EA13414160DF
:101D0000C16921F40061C1610120666584F8510058
:101D1000304670BD70B586B040F60004C4F20104D0
:101D2000006804F5205100268842049602D006B0CF
:101D300070BD00BF41F21800C4F20200016802AD9C
:101D400041F480510160016801F4805101910199D1
:101D5000016841F0040101600068294600F00400B8
:101D600001900198A020029002200390032005908A
:101D70002046FFF7C9FA4020CDE902062046294651
:101D80000496FFF7C1FA06B070BD00002DE9F043DC
:101D900081B0044690F85100012811D1606899463D
:101DA00016460D46B0F5827F01D1A068D0B194F8F7
:101DB0005000012806D10227384601B0BDE8F08363
:101DC000022708E0012784F85070FFF7B7FB002DC9
:101DD00018BF002E14D1002084F85000384601B0FE
:101DE000BDE8F083042084F85100204629462A46A5
:101DF0003346CDF8009000F0BFF901B0BDE8F083A4
:101E000080460420002184F851006165A563A687FF
:101E1000E6872163A186E186A2682068B2F5004FBB
:101E20002164616440D1016821F0400101600168D2
:101E300021F4804101600168490638D5E168E08FEE
:101E400000293CD000286BD019F101000BD11AE019
:101E5000C068A16B21F8020BA163E08F0138E08715
:101E6000E08F00285CD020688168C907F0D1FFF7B7
:101E700065FBA0EB08004845F2D33AE0FFF75EFBB4
:101E8000E08F00284CD020688168C907F6D0C06870
:101E9000A16B21F8020BA163E08F0138E087E08F8E
:101EA0000028F0D13CE000BF01684906C6D40168B3
:101EB00041F040010160E168E08F0029C2D178B3B0
:101EC00019F101000BD11BE0007BA16B0870A06B26
:101ED0000130A063E08F0138E087E08F00B3206815
:101EE0008168C907F0D1FFF729FBA0EB080048453E
:101EF000F3D303273DE000BFFFF720FBE08F78B16D
:101F000020688168C907F7D0007BA16B0870A06BBF
:101F10000130A063E08F0138E087E08F0028EFD127
:101F20006068B0F5827F11D1A068B0F5004F02D093
:101F3000B0F5806F0AD12168B0F5806F0A6822F091
:101F400040020A6002D12046012101E020468021A2
:101F50004A46434601F05CFB28B1606D40F020002A
:101F6000606520206065606D10B1012733E700BF18
:101F70000027012084F851002DE700002DE9F041F1
:101F800082B0044690F85000012803D1022002B02C
:101F9000BDE8F08101201D4616460F4684F850002A
:101FA000FFF7CCFA94F8511001290DD18046002F8B
:101FB0004FF0010018BF002E0ED1002184F8501000
:101FC00002B0BDE8F08100BF0220002184F850106B
:101FD00002B0BDE8F08100BF0320002184F8510069
:101FE00061652763A686E686A163A187E187A0686D
:101FF0002164B0F5004F2068616407D1016821F0C9
:1020000040010160016841F48041016001684906B6
:1020100003D4016841F0400101606168731EE26809
:10202000B1FA81F1B3FA83F349095B09B2F5006FA4
:1020300041EA03013CD131B137F8021BC16027638B
:10204000E08E0138E086E08E00286BD0681C0CD151
:102050001DE000BF216B31F8022BC2602163E08ECE
:102060000138E086E08E00285CD02068816889070E
:10207000F0D4FFF763FAA0EB0800A842F2D30320E4
:1020800071E000BFFFF75AFAE08E00284AD02068BE
:1020900081688907F6D5216B31F8022BC260216374
:1020A000E08E0138E086E08E0028F0D13AE000BFF3
:1020B00039B139780173206B01302063E08E01382B
:1020C000E086E08E70B3681C0BD11BE0216B0978B1
:1020D0000173206B01302063E08E0138E086E08ED2
:1020E00000B3206881688907F0D4FFF727FAA0EBD6
:1020F0000800A842F3D3032035E000BFFFF71EFA23
:10210000E08E78B1206881688907F7D5216B09785E
:102110000173206B01302063E08E0138E086E08E91
:102120000028EFD1204680212A46434601F070FA6C
:1021300028B1606D40F02000606520206065A068D7
:1021400038B9002001902068C16801918068019031
:102150000198606D30B10120002184F8501002B068
:10216000BDE8F0810020012184F85110002184F89D
:10217000501002B0BDE8F0812DE9F04381B0044673
:1021800090F85000012803D1022001B0BDE8F0838F
:1021900001201E4615460F4684F85000FFF7CEF981
:1021A00094F851108146012912D06068B0F5827F01
:1021B00040F0A480A06800284FF0020008BF042966
:1021C00006D0002184F8501001B0BDE8F08300BFB4
:1021D000002F4FF0010018BF002DF2D0002EF0D0DC
:1021E00094F85100002104281CBF052084F85100F8
:1021F0006165A563E687A6872763E6862068A686CD
:10220000216461640168490603D4016841F040011A
:1022100001606168731EE268B1FA81F1B3FA83F379
:10222000DDF8208049095B09B2F5006F41EA03013E
:102230006CD131B137F8021BC1602763E08E0138E1
:10224000E086012518F1010031D101E0FFF776F9B0
:10225000E08E18B9E08F002800F0C0802068816807
:1022600089070CD5E18E51B1012D08D1216B0025D4
:1022700031F8022BC2602163E18E0139E186816869
:10228000C907E3D0E18F0029E0D0C068A16B012528
:1022900021F8020BA163E08F0138E087D6E700BF89
:1022A000FFF74CF9A0EB0900404580F0AB80E08ED1
:1022B00018B9E08F002800F09180206881688907B4
:1022C0000CD5E18E51B1012D08D1216B002531F8DB
:1022D000022BC2602163E18E0139E1868168C90762
:1022E000DED0E18F0029DBD0C068A16B012521F889
:1022F000020BA163E08F0138E087D1E702200021C3
:1023000084F8501001B0BDE8F08300BF39B13978CE
:102310000173206B01302063E08E0138E0860125D7
:1023200018F1010032D101E0FFF708F9E08E10B991
:10233000E08F002852D02068816889070ED5E18E91
:1023400061B1012D0AD1216B002509780173216B40
:10235000206801312163E18E0139E1868168C90776
:10236000E2D0E18F0029DFD0C068A16B01250870A1
:10237000A06B0130A063E08F0138E087D4E700BF95
:10238000FFF7DCF8A0EB090040453BD2E08E08B92E
:10239000E08F18B32068816889070ED5E18E61B19E
:1023A000012D0AD1216B002509780173216B20686A
:1023B00001312163E18E0139E1868168C907DFD0EF
:1023C000E18F0029DCD0C068A16B01250870A06BEB
:1023D0000130A063E08F0138E087D1E720468021FB
:1023E00042464B4601F014F9B0B1606D40F0200058
:1023F0006065202060650120002184F8501001B044
:10240000BDE8F083012084F851000320002184F806
:10241000501001B0BDE8F083A06838B900200090EA
:102420002068C1680091806800900098606D002865
:102430004FF0010004BF84F851000020002184F80F
:10244000501001B0BDE8F083411E0020B0EB116FC9
:102450001CBF012070474EF21002CEF20002516004
:102460004EF62351CEF20001F0230B70072190604D
:10247000116070474EF21000CEF20000016821F0AA
:10248000020101607047000010B590F83C20012A5D
:102490004FF0020233D080F83D200268D2F804E009
:1024A000D2F808C00C682EF07003234340F2FF748A
:1024B000C4F20004A24253600ADCB2F1804F13D090
:1024C00040F20043C4F200039A420DD011E000BF75
:1024D00042F60043C4F201039A4205D040F60003DD
:1024E000C4F200039A4204D149682CF080031943D6
:1024F00091600121002280F83D1080F83C201046B8
:1025000010BD0000002804BF0120704710B504462C
:1025100090F83D0028B9002084F83C00204600F0E7
:1025200067F8022084F83D00206840F2FF730268DB
:10253000C4F2000342F6004C9842C4F2010C15DCD0
:10254000B0F1804F1AD040F20041C4F2000188423D
:1025500014D0984218DCB0F1804F1DD040F20041F9
:10256000C4F20001884217D01AE000BF604505D0D0
:1025700040F60001C4F200018842EAD1A16822F0CD
:1025800070020A439842E6DD604505D040F600013E
:10259000C4F20001884203D1216922F440720A4347
:1025A000A36922F08001D4F804E0E2681943604591
:1025B0000160C262C0F828E002D16169CCF8301035
:1025C00001214161002084F8461084F83E1084F80F
:1025D0003F1084F8401084F8411084F8421084F8C9
:1025E000431084F8441084F8451084F83D1010BD61
:1025F00081B0006842F60041C4F20101884201D076
:1026000001B0704741F21800C4F20200016841F4C1
:1026100000610160006800F400600090009801B063
:102620007047000090F83D1001291CBF0120704741
:10263000022180F83D10006840F2FF71C4F20001F1
:10264000884209DCB0F1804F12D040F20041C4F260
:10265000000188420CD012E042F60041C4F20101B0
:10266000884205D040F60001C4F20001884206D13C
:10267000816801F00701062904BF00207047016846
:1026800041F00101016000207047000080B590F822
:102690003C20012A4FF0020200F0C28080F83D2069
:1026A000D0F800C04FF67772DCF8083023EA020257
:1026B000CCF808200B684F2B28DC1F2B44DD202B87
:1026C00045D0302B43D0402B40F0AC80D1F804E013
:1026D000C968DCF82030DCF8202022F00102CCF8B8
:1026E0002020DCF8182022F0F00242EA011123F049
:1026F0000A0242EA0E02CCF81810CCF82020DCF8CE
:10270000081041F0470121F0300180E06F2B27DDF8
:10271000B3F5005F48D0B3F5805F7AD0702B40F0FE
:102720008180D1E901E3C968DCF8082043EA0E039F
:1027300022F47F4243EA01211143CCF80810DCF86F
:10274000081041F0770162E00BB1102B6AD1DCF880
:10275000081021F07001194341F0070157E000BF54
:10276000502B35D0602B5DD1D1F804E0C968DCF87E
:102770002030DCF8202022F01002CCF82020DCF8F9
:10278000182022F4704242EA013123F0A00242EA0A
:102790000E12CCF81810CCF82020DCF8081041F00C
:1027A000670121F0100132E0D1E901E3C968DCF8EA
:1027B000082043EA0E0322F47F4243EA0121114339
:1027C000CCF80810DCF8081041F480411FE000BF8D
:1027D000D1F804E0C968DCF82030DCF8202022F0D1
:1027E0000102CCF82020DCF8182022F0F00242EAA6
:1027F000011123F00A0242EA0E02CCF81810CCF8BC
:102800002020DCF8081041F0570121F02001CCF81D
:1028100008100022012180F83D10002180F83C10B2
:10282000104680BD0122F5E7FEE7000070B582B0DA
:102830000446164641F080020068A1888DF8072002
:1028400000221D46FEF774FEA0690DF1070101226A
:102850004FF4FA63FFF792FBA069FFF701FA012832
:10286000FAD1A06931462A464FF4FA63FFF786FB96
:10287000A069FFF7F5F90128FAD12068A1880122A3
:10288000FEF756FE02B070BD70B582B00D4601264F
:1028900001A90DF10503012204468DF8046000969C
:1028A00000F0E0F99DF80500062D19D8DFE805F0E5
:1028B0000408180C1810140000F0F8000FE000BF16
:1028C00000F0F80001300AE000F0F800033006E004
:1028D00000F0F800053002E000F0F8000630E56195
:1028E00081218DF806108DF807000DF106010DF11C
:1028F000070320460122009600F0DEFB02B070BD07
:102900002DE9F04383B001250DF10A010DF10B0310
:10291000012204468DF80A50009500F0A3F99DF8B5
:102920000B00002700F0F8004FF081088DF80B0035
:102930000DF10A010DF10B0320460122E7618DF82C
:102940000A80009500F0B8FB0A20FEF77BFC0DF131
:102950000A010DF10B03204601228DF80A50009563
:1029600000F080F99DF80B600A20FEF76BFC46F042
:1029700080008DF80B000DF10A010DF10B032046CC
:1029800001228DF80A80009500F096FB6420FEF786
:1029900059FC266A8621B0088DF80A108DF80B00C4
:1029A0000DF10A010DF10B0320460122009500F004
:1029B00083FB0520FEF746FCB00187218DF80A1045
:1029C0008DF80B000DF10A010DF10B0320460122D9
:1029D000009500F071FB0520FEF734FC88208DF88F
:1029E0000A000DF10A010DF10B03204601228DF8BA
:1029F0000B70009500F060FB0520FEF723FC94F8B7
:102A00002A0089218DF80A108DF80B000DF10A01BA
:102A10000DF10B0320460122009500F04DFB0A202A
:102A2000FEF710FC94F82B00CD222D2898BF2D2006
:102A3000F02828BFF020A0F12D01C9B2514300F1C8
:102A40001E024CF6CD435A43D20C792838BF8A0A6D
:102A500002F120008B218DF80A108DF80B000DF18A
:102A60000A010DF10B0320460122009500F024FB22
:102A70000A20FEF7E7FB8C208DF80A0023208DF852
:102A80000B000DF10A010DF10B0320460122009508
:102A900000F012FB1E260DF10A010DF10B0320467A
:102AA00001228DF80A60009500F0DCF89DF80B001B
:102AB0004FF09E0940F007008DF80B000DF10A0160
:102AC0000DF10B03204601228DF80A90009500F0CD
:102AD000F3FA0A20FEF7B6FB94F824700DF10A0110
:102AE0000C2FA8BF0C270DF10B0320460122072F46
:102AF000D8BF07278DF80A60009500F0B3F89DF85D
:102B00000B600A20FEF79EFB06F00F0040EA07105C
:102B10008DF80B000DF10A010DF10B032046012287
:102B20008DF80A90009500F0C7FA0A20FEF78AFB9C
:102B30009F208DF80A00FF208DF80B000DF10A018F
:102B40000DF10B0320460122009500F0B5FA94F830
:102B5000260094F82510400000EB01109D218DF80F
:102B60000A108DF80B000DF10A010DF10B03204640
:102B70000122009500F0A0FA94F82900A0218DF818
:102B80000A108DF80B000DF10A010DF10B03204620
:102B90000122009500F090FA94F82800A1218DF808
:102BA0000A108DF80B000DF10A010DF10B03204600
:102BB0000122009500F080FA40208DF80A000DF106
:102BC0000A010DF10B0320460122009500F04AF89E
:102BD0009DF80B00C02140F03F008DF80A108DF8E1
:102BE0000B000DF10A010DF10B03204601220095A7
:102BF00000F062FA0DF10A010DF10B0320460122EB
:102C00008DF80A50009500F02DF89DF80B000DF19D
:102C10000A0100F0F80001308DF80B000DF10B03F4
:102C200020460122E5618DF80A80009500F044FA03
:102C30000A20E561FEF706FB42208DF80A000DF13F
:102C40000A010DF10B0320460122009500F00AF85D
:102C50009DF80B104FF4CA70122908BFC82003B0AA
:102C6000BDE8F0832DE9F04104461746A2880068CC
:102C7000069E0D46114600229846FEF759FCA069B3
:102C800029463A464FF4FA63FFF778F9A069FEF750
:102C9000E7FF0128FAD1A069414632464FF4FA63B2
:102CA000FFF774F8A069FEF7DBFF0128FAD120686E
:102CB000A1880122BDE8F041FEF73ABC2DE9F04FB2
:102CC00083B01646894604461AB148463146FDF798
:102CD0004DFB01270DF10A010DF10B0320460122E6
:102CE0008DF80A700097FFF7BDFF9DF80B00812556
:102CF00000F0F80001308DF80B000DF10A010DF124
:102D00000B0320460122E7618DF80A50009700F07E
:102D1000D3F912208DF80A000DF10A010DF10B0311
:102D2000204601220097FFF79DFF9DF80B0040060B
:102D300002D44FF000085FE092208DF80A00FF20D7
:102D40008DF80B000DF10A010DF10B032046012255
:102D5000009700F0B1F913208DF80A000DF10A0177
:102D60000DF10B03204601220097FFF77BFF102097
:102D70009DF80B808DF80A000DF10A010DF10B038F
:102D8000204601220097FFF76DFF9DF80B008D2173
:102D90008DF80A108DF80B000DF10A010DF10B03EF
:102DA00020460122009700F087F9464538BFB0461B
:102DB000B8F1000F4FF0000B1CD0A9F101074FF044
:102DC00001090DF10A050DF10B06C2462046294600
:102DD000012233468DF80AB0CDF80090FFF742FF8C
:102DE0009DF80B00BAF1010A07F8010FEED1012797
:102DF000812501E04FF000080DF10A010DF10B03F0
:102E0000204601228DF80A700097FFF72BFF9DF8EE
:102E10000B00052100F0F8000530E1618DF80B0092
:102E20000DF10A010DF10B03204601228DF80A5025
:102E3000009700F041F9404603B0BDE8F08F000074
:102E40002DE9F04782B01D4616460F46D0F81C808B
:102E50004FF001090DF106010DF1070301220446AF
:102E60008DF80690CDF80090FFF7FCFE9DF8070066
:102E70004FF0810A00F0F80001308DF807000DF1E5
:102E800006010DF1070320460122C4F81C908DF8BD
:102E900006A0CDF8009000F00FF90E208DF8060086
:102EA0000DF106010DF1070320460122CDF8009037
:102EB000FFF7D8FE9DF807008D218DF806108DF8DC
:102EC00007000DF106010DF1070320460122CDF8A0
:102ED000009000F0F1F8A2208DF806000DF1060137
:102EE0000DF10703204601228DF80760CDF8009010
:102EF00000F0E2F8204600213A463346FFF796FC00
:102F00000DF106010DF10703204601228DF8069010
:102F1000CDF80090FFF7A6FE9DF80700032100F012
:102F2000F8000330E1618DF807000DF106010DF1A5
:102F30000703204601228DF806A0CDF8009000F08E
:102F4000BBF84FF0120A0DF106010DF10703204600
:102F500001228DF806A0CDF80090FFF783FE9DF8C2
:102F60000700000718D40DF106060DF1070700BF92
:102F7000013D28043CD00120FEF764F9204631468B
:102F800001223B468DF806A0CDF80090FFF76AFEBF
:102F90009DF807000007EBD592208DF80600FF2072
:102FA0008DF807000DF106010DF1070320460122FF
:102FB000CDF8009000F080F80DF106010DF1070347
:102FC000204601228DF80690CDF80090FFF74AFECA
:102FD0009DF80700B8F1060F37D8DFE808F005259F
:102FE0003629362D310000BF00F0F8002BE000BF7D
:102FF00001250DF106010DF10703204601228DF890
:1030000006500095FFF72EFE9DF80700B8F1060F59
:103010003FD8DFE808F0052D3E313E35390000BFCE
:1030200000F0F80033E000BF00F0F80001300AE0E3
:1030300000F0F800033006E000F0F800053002E090
:1030400000F0F8000630C4F81C8081218DF80610CD
:103050008DF8070001250DF106010DF1070320464B
:103060000122009500F028F8284602B0BDE8F0875C
:1030700000F0F80001300AE000F0F800033006E04C
:1030800000F0F800053002E000F0F8000630C4F867
:103090001C8081218DF806108DF807000DF10601C6
:1030A0000DF1070320460122009500F005F80025E8
:1030B000284602B0BDE8F0872DE9F04104461746E6
:1030C000A2880068069E0D46114600229846FEF72B
:1030D0002FFAA06929463A464FF4FA63FEF74EFFED
:1030E000A069FEF7BDFD0128FAD1A069414632462C
:1030F0004FF4FA63FEF742FFA069FEF7B1FD012825
:10310000FAD12068A1880122BDE8F041FEF710BA8B
:10311000FEE70000FEE700002DE9F04F85B0054610
:1031200001200290022001AF0C464FF0000A0490EB
:103130000191284639464FF0010BCDF80CA04FF015
:103140000208FEF7E1F8284621460022FEF7F0F9D2
:10315000052000F0D7FA0DF1040928464946CDE9CB
:1031600003AACDE9014AFEF7CFF80F2000F0CAFA12
:1031700028462146FEF7D6F90646322000F0C2FA6C
:1031800028463946CDF808B04FF0010BCDE903A829
:103190000194B846FEF7B8F8284621460022FEF70B
:1031A000C7F9052000F0AEFA28464946CDE903AA42
:1031B000CDE9014AFEF7A8F80F2000F0A3FA28464F
:1031C0002146FEF7AFF90746322000F09BFA0220B5
:1031D00004902846414646EA4707CDE902BA0194E1
:1031E000C346FEF791F8284621460022FEF7A0F9D3
:1031F000052000F087FA28464946CDE903AACDE923
:10320000014AC846FEF780F80F2000F07BFA2846F6
:103210002146FEF787F90646322000F073FA0120B6
:103220000290022004902846594647EA86074FF04C
:103230000109CDF80CA00194FEF766F82846214656
:103240000022FEF775F9052000F05CFA2846414699
:10325000CDE903AACDE9014AFEF756F80F2000F0A8
:1032600051FA28462146FEF75DF90646322000F065
:1032700049FA022004902846594647EAC607CDF885
:1032800008904FF00109CDF80CA00194FEF73CF82E
:10329000284621460022FEF74BF9052000F032FABD
:1032A00028464146CDE903AACDE9014AFEF72CF8AC
:1032B0000F2000F027FA28462146FEF733F906468C
:1032C000322000F01FFA022004902846594647EAAF
:1032D0000617CDF808904FF00109CDF80CA0019425
:1032E000FEF712F8284621460022FEF721F90520B4
:1032F00000F008FA28464146CDE903AACDE9014A83
:10330000FEF702F80F2000F0FDF928462146FEF7EF
:1033100009F90646322000F0F5F90220049028460B
:10332000594647EA4617CDF808904FF00109CDF805
:103330000CA00194FDF7E8FF284621460022FEF785
:10334000F7F8052000F0DEF928464146CDE903AA4A
:10335000CDE9014AFDF7D8FF0F2000F0D3F9284648
:103360002146FEF7DFF80646322000F0CBF90220B6
:1033700004902846594647EA8616CDE9029A0194F8
:10338000FDF7C2FF284621460022FEF7D1F80520AE
:1033900000F0B8F928464146CDE903AACDE9014A33
:1033A000FDF7B2FF0F2000F0ADF928462146FEF7E9
:1033B000B9F80446322000F0A5F946EAC410C0B2BC
:1033C00005B0BDE8F08F00002DE9F04F85B005464F
:1033D00050B2009001200DF1040B0C4602904FF00A
:1033E000000A4FF002080191284659461646CDF8CA
:1033F0000CA0CDF81080FDF787FF2846214600225B
:1034000006F00109FEF794F81020B9F1000F08BF8B
:103410003C2000F077F9284621460122FEF788F883
:103420003120B9F1000F08BF052000F06BF901A8A9
:103430004FF0010980E8100628465946CDF8108063
:10344000FDF762FF28462146002206F00207FEF73C
:103450006FF81020002F08BF3C2000F053F92846D9
:1034600021460122FEF764F83120002F08BF052015
:1034700000F048F928465946CDF808904FF0010968
:10348000CDE903A80194FDF73FFF2846214600221D
:1034900006F00407FEF74CF81020002F08BF3C2070
:1034A00000F030F9284621460122FEF741F831208C
:1034B000002F08BF052000F025F901A880E81006BC
:1034C00028465946CDF81080FDF71EFF28462146B4
:1034D000002206F00807FEF72BF81020002F08BF87
:1034E0003C2000F00FF9284621460122FEF720F883
:1034F0003120002F08BF052000F004F901A880E862
:10350000100628465946CDF81080FDF7FDFE2846E6
:103510002146002206F01007FEF70AF81020002FBF
:1035200008BF3C2000F0EEF8284621460122FDF7B6
:10353000FFFF3120002F08BF052000F0E3F801A8AD
:1035400080E8100628465946CDF81080FDF7DCFECD
:1035500028462146002206F02007FDF7E9FF10204B
:10356000002F08BF3C2000F0CDF82846214601225C
:10357000FDF7DEFF3120002F08BF052000F0C2F864
:1035800001A880E8100628465946CDF81080FDF7BE
:10359000BBFE28462146002206F04006FDF7C8FF84
:1035A0001020002E08BF3C2000F0ACF82846214631
:1035B0000122FDF7BDFF3120002E08BF052000F0DD
:1035C000A1F801A880E8100628465946CDF81080D9
:1035D000FDF79AFE284621460022FDF7A9FF009E2E
:1035E0001020B6F1FF3FC8BF3C2000F08BF8284602
:1035F00021460122FDF79CFF3120B6F1FF3FC8BFF5
:10360000052000F07FF805B0BDE8F08F704700009E
:103610002DE9F04182B01E4690460D460446FDF766
:103620008DFF301A00EB0807FDF788FF40F20C0110
:10363000C2F200010968C1F3CB31794301912168DD
:103640008A682A40AA4227D1064618F101001FD0F5
:10365000FDF774FF801BB84222D20198019900281F
:10366000A1F1010101912168896808BF074601EABB
:103670000500A842ECD00FE088682840A8420BD192
:1036800088682840A84207D188682840A84203D10A
:1036900088682840A842EFD0002002B0BDE8F08141
:1036A000D4E900014268B1F5827F22F0E002426075
:1036B0000AD1A168B1F5004F02D0B1F5806F03D1F6
:1036C000016821F040010160A16AB1F5005F07D1F6
:1036D000016821F400510160016841F4005101606A
:1036E000012084F85100002084F85000032002B02B
:1036F000BDE8F08170470000FDF726BF704700006D
:10370000FEE7000040F23411C2F200010968002215
:103710004A6206E04A6A824288BF70474A6A824229
:1037200005D84A6A824202D84A6A8242F2D9704770
:1037300094B0FDF717FF00240120CDE90844CDE93E
:103740000644039007904FF4E0104FF480310225B7
:103750000C9003A8CDE90414CDE90A51FEF79CF8BA
:1037600020B1EFF3108072B6FEE700BF0F20CDE965
:103770000E054FF4806B0EA802211094CDE911B410
:10378000FDF7AAFF20B1EFF3108072B6FEE700BF8D
:1037900041F21800C4F20200016840F6000A41F04C
:1037A000100101600168C4F2010A01F010010391E7
:1037B000039901680AF5006741F020010160016882
:1037C000002201F020010391039901684FF4005594
:1037D00041F0040101600168002401F0040103913B
:1037E0000399016841F00801016000684FF400513D
:1037F00000F00800039003983846FDF799FE504604
:103800001C210022FDF794FE0AF580694846032139
:1038100001220126FDF78CFECDE9035603AD4FF0E2
:103820000208384629460594CDF81880FDF76CFD4E
:103830000027C1F2110707F58010CDE904065046B4
:1038400029460396FDF760FD50462946CDE90384DD
:103850000594FDF759FD1C20CDE903065046294685
:10386000CDE90548FDF750FD0320CDE903064846A4
:103870002946CDE90548FDF747FD48462946CDE9EB
:1038800003B70594FDF740FD062000210022FDF757
:10389000D7FE0620FDF7C0FE282000210022FDF7FC
:1038A000CFFE2820FDF7B8FE40F2DC070AF52050D5
:1038B000C2F200074FF4827187E813000A204FF428
:1038C00000721023C7E90A403846C7E90344C7E934
:1038D0000542FB61C7E90844FEF7C6F920B1EFF3E2
:1038E000108072B6FEE700BF40F234100AF51051A6
:1038F000C2F200004FF6FF730694CDE90444CDE90F
:103900000E44472280E81600C0E90334C0E90544AC
:10391000FEF7F8FD20B1EFF3108072B6FEE700BFAE
:103920004FF48050039040F23410C2F2000003A91B
:10393000FEF7ACFE20B1EFF3108072B6FEE700BFD9
:1039400040F23410C2F200000EA9FEF79DFD28B12E
:10395000EFF3108072B600BFFEE700BF40F23410F4
:10396000C2F20000FEF75EFE40F27004C2F20004F4
:10397000254645F82CAF4FF0020B2846A4F830B08E
:10398000FDF750FA286804F130052ECD1F26CDE949
:103990000056FDF70BFB03A800F00AF90DF10C0E21
:1039A0009EE80150A046069B48F8400FDDE9070657
:1039B0000B9AC8E903300C98DDE90951C8E90820E1
:1039C0000120C8E901CEC8E90565C8F81C10A8F8AF
:1039D00004004FF4806188F826000820A8F814102D
:1039E00040F2B111C7F6FF00C8F8201040F207718D
:1039F000C8F828004046C8F81870C8F80090C8F801
:103A00000890A8F80CB0C8F81090A8F82410FEF799
:103A100077FF28F83E0C504610210122FDF788FD63
:103A2000504608210122FDF783FD50460421012262
:103A3000FDF77EFD4FF47A70FDF704FC504610212F
:103A400000224FF00008FDF773FD504608210022C8
:103A5000FDF76EFD504604210022FDF769FD40F29E
:103A6000000B04F1400604F10809C2F2000B00BF8C
:103A7000504610210022FDF75BFD50460821002230
:103A8000FDF756FD504604210022FDF751FD30465A
:103A90000021FEF7F9FEFEF7EDFC00200121FDF705
:103AA0000BFEFEF7D3F830460521FEF7EDFE04F1DC
:103AB0002C078FCFCDE90079FDF710F9BBF8000096
:103AC000A56800F059FE0146284600F0FFFD38B910
:103AD000504610210122FDF72BFD0027002523E091
:103AE000BBF8020000F048FECA46D9468346284685
:103AF000594600F0F9FD0746002828465946CB46AE
:103B0000D14640F6000A18BF0127C4F2010A00F0AE
:103B1000DDFD0546002850464FF010014FF0000231
:103B200018BF0125FDF704FD504608213A46FDF770
:103B3000FFFC504604212A46FDF7FAFCFDF7FEFC87
:103B400061688842FAD330460521C4F80480FEF744
:103B50009BFE60680028F1D1A068C4F81280C4F808
:103B60000E8000F073FD0B4603AD44F6C211024611
:103B70002846C0F60001FCF733FB27464FF60270DB
:103B800027F80C0F38462946FCF7E4FBFCF7C3FB8B
:103B900007F13405C2B2284639460A23FFF750F927
:103BA00028460521FEF770FE5A20FDF74BFB5FE724
:103BB00040F2B111016240F207718184012180F865
:103BC00026100821C6F2FF41816270475FEA400C6F
:103BD00008BF91F0000F4FEA8C234FEAC12243EA5D
:103BE00051514FEA1C5018BF00F5F0404FEA300029
:103BF00018BF41F000415FEA6C5C00F02980BCF125
:103C0000FF3F08BF40F080407047130C06BF12040E
:103C10004FF0100C4FF0000C130E04BF12020CF109
:103C2000080C130F04BF12010CF1040C930F04BF16
:103C300092000CF1020CD30F04BF52000CF1010CE6
:103C400011464FF00002A0F11F00A0EB0C007047DE
:103C500011F0004F08BF704731F000413FF4D5AF7D
:103C60000B0C06BF09044FF0100C4FF0000C0B0EAC
:103C700004BF09020CF1080C0B0F04BF09010CF181
:103C8000040C8B0F04BF89000CF1020CCB0F04BF96
:103C900049000CF1010CCCF1200322FA03F341EAB4
:103CA000030102FA0CF2A0EB0C0000F101007047D6
:103CB00023F07F4720F07F4C80EA030000F00040B3
:103CC000ACEB070303F57C5303F1FF032DE98049B7
:103CD00009B44FEA144324EA03484FEA154B25EA96
:103CE0000B4E0FF2042606EB13273E7803FB066704
:103CF000C7F5000707FB06F64FEAD64606F10206AF
:103D00004FEA543707FB066CCCF1005C4FEA1C47C6
:103D10002CEA074C0CFB06F507FB06F404EB1546F2
:103D20004FEA961649085FEA320234BF00204FF08E
:103D300000404FEAD13706FB07FC4FEA1C4C0CFB56
:103D40000BF7D21B03FB0CF761EB07010CFB0EF723
:103D5000B0EB074072EB17420CFB08F734BFA2EB45
:103D60000742B2EB074261EB17414FEA0C444FEABE
:103D7000910706FB07FC4FEA1C4C0CFB0BF7B0EB62
:103D8000C74072EB573203FB0CF734BFA2EBC742BC
:103D9000B2EBC74261EB57310CFB0EF7B0EBC7003B
:103DA00072EB57720CFB08F734BFA2EBC702B2EB01
:103DB000C70261EB57714FEA816141EA92114FEA04
:103DC000826242EA90124FEA806004EBCC04039FC7
:103DD0004FEAD13706FB07FC4FEA1C4C0CFB0BF7F4
:103DE000D21B03FB0CF761EB07010CFB0EF7B0EBEA
:103DF000074072EB17420CFB08F734BFA2EB0742F7
:103E0000B2EB074261EB17414FEA8C5504EB9C245F
:103E10004FEA910706FB07FC4FEA1C4C0CFB0BF723
:103E2000B0EBC74072EB573203FB0CF734BFA2EB89
:103E3000C742B2EBC74261EB57310CFB0EF7B0EB58
:103E4000C70072EB57720CFB08F734BFA2EBC70236
:103E5000B2EBC70261EB57714FEA816141EA9211FF
:103E60004FEA826242EA90124FEA806015EB4C25DD
:103E700044F100044FEAD13706FB07FC4FEA1C4C23
:103E80000CFB0BF7D21B03FB0CF761EB07010CFBE0
:103E90000EF7B0EB074072EB17420CFB08F734BF8C
:103EA000A2EB0742B2EB074261EB17414FEA8131C7
:103EB00041EA92414FEA823242EA90424FEA803030
:103EC0004FEA0C7615EB1C1544F1000448EA034355
:103ED0004EEA0B484FF0000EB2EB080C71EB0307F3
:103EE00024BF624639464EEB0E0E4FF0000B001811
:103EF000524149414BEB0B0BB2EB080C71EB030742
:103F00007BF1000B24BF624639464EEB0E0E4FF09C
:103F1000000B0018524149414BEB0B0BB2EB080C64
:103F200071EB03077BF1000B24BF624639464EEB71
:103F30000E0E51EA020718BF46F0010616EB0E7688
:103F400055F1000254F1000103D5BDE88901BDE837
:103F50000088BDE88901BDE80048B619524141EB2F
:103F60000101A3F10103704780807F7E7D7C7B7A15
:103F70007978777676757473727171706F6E6E6D15
:103F80006C6C6B6A6A6968686766666564646363BB
:103F900062616160605F5F5E5E5D5D5C5C5B5B5A41
:103FA0005A595958585757565655555554545353AE
:103FB00052525251515050504F4F4F4E4E4D4D4D09
:103FC0004C4C4C4B4B4B4A4A4A4949494848484754
:103FD0004747474646464545454444444443434392
:103FE00043424242424141419C46002B30D477003B
:103FF0002BD04FEA37071CB503B44FF010004FF039
:104000001001BAF1000F06D0BCF1000FDCBF40F088
:10401000080040F008014FF000000FBCBDE8104060
:104020000BF1010BBBF1010F08BF5FEA170722BFBD
:1040300012F1010211F101014FF0004143F10003BF
:1040400000F0004043EA00007047F9D35708D0E77A
:1040500046EA06464FEA164613F1400F1FDD13F1FC
:10406000200FDFBF16430A46002120335B42BED03B
:10407000C3F1200746EA06464FEA164602FA07F75A
:1040800046EA070622FA03F2C3F1200701FA07F70E
:1040900042EA070221FA03F14FF00003A7E746EADC
:1040A000020646EA06464FEA164646EA0106BCBF45
:1040B00046EA0646360C4FF000034FF000024FF080
:1040C000000194E72DE9804C70B49A46934691E83C
:1040D000380007C831EA400C48BF34EA430C03D526
:1040E000FFF7E6FDFFF780FFF0BCBDE8008C2DE98F
:1040F000804C70B49A46934691E8380007C810F097
:10410000804F08BF13F0804F03D100F005F8FFF790
:104110006BFFF0BCBDE8008C20F07F4723F07F4CA4
:1041200080EA030000F0004007EB0C03A3F57C538A
:10413000A3F1FE0392F0000F00F0B38095F0000FA2
:1041400000F077802DE901494FEA114021EA00484B
:104150004FEA144624EA064700FB06FC08FB06F675
:1041600007FB08F818EB06484CEB164C00FB07F76A
:1041700018EB07484CEB17404FEA124B22EA0B4E64
:104180004FEA154625EA06470BFB06FC0EFB06F632
:1041900007FB0EFE1EEB064E4CEB164C0BFB07F717
:1041A0001EEB074E4CEB174B18EB0B0840F10000D1
:1041B00018EB0E0B58EB000840F100008F1A4FF07F
:1041C00000014FF000063CBFC943661B14BFB5EBAE
:1041D000040C00213CBFC943F61B4FEA174427EAF1
:1041E00004454FEA1C472CEA074C04FB076205FB19
:1041F00007F70CFB05F616EB074642EB174204FBEC
:104200000CFC16EB0C4642EB1C421BEB060658EB73
:10421000020241414EEA8E0E46EA9E0601D5BDE8F5
:104220000189B619524141EB0101A3F10103BDE837
:1042300001894FEA144524EA05464FEA114721EA6D
:10424000074C05FB07F406FB07F70CFB06F111EB27
:10425000074144EB174405FB0CFC11EB0C4144EB0C
:104260001C444FEA124722EA074C05FB07F206FB03
:1042700007F70CFB06F616EB074642EB174205FB69
:104280000CFC16EB0C4642EB1C456A1854F100017D
:1042900048BF7047B619524141EB0101A3F1010338
:1042A000704795F0000F37D04FEA114221EA0246DD
:1042B0004FEA144724EA074C02FB07F106FB07F715
:1042C0000CFB06F414EB074441EB174102FB0CFC1A
:1042D00014EB0C4441EB1C414FEA154725EA074C0F
:1042E00002FB07F506FB07F70CFB06F616EB074685
:1042F00045EB174502FB0CFC16EB0C4645EB1C424C
:10430000121951F1000148BF7047B619524141EBF3
:104310000101A3F1010370474FEA144524EA054661
:104320004FEA114721EA074C05FB07F106FB07F7A7
:104330000CFB06F212EB074241EB174105FB0CFCAC
:1043400012EB0C4251EB1C414FF0000648BF704786
:10435000921841EB0101A3F101037047490050EAB3
:10436000C12018BF04204A0D18BF40F0010040F2E0
:10437000FF72B2EB515F08BF40F00200012808BF96
:104380000520704730380A2801D2012070470020EC
:104390007047000010B500290AD00878002807D01F
:1043A00005487844FCF788FB002801D0002010BDA8
:1043B0000248784410BD0000460600003E0600009A
:1043C00021F0004201F00043A2F16052B2F5801FDB
:1043D00028BFD2F17F6C0BD95FEA001C43EAC2020E
:1043E00042EB507018BF704728BF20F001007047A3
:1043F000B2F5801FBCBF184670474FEA410C1CF550
:10440000001F02D2084600F079BA70B500F0CAF871
:1044100000000089FFF7F6BF4FF00040A0F58000D4
:10442000704710F0004248BF4042B0FA80F310FAE3
:1044300003F10AD0C3F11D0303F5806302EB0352BD
:104440004FEA415002EBD12170474FF00000704716
:1044500070B5DFF848C11CEA111E1EBF1CEA131517
:104460009EEA0C0F95EA0C0F00F06F8081EA0304BE
:104470004EEAD47EAE4421EA4C1123EA4C1341F4B7
:10448000801143F48013AEF17F7EA1FB024CA0FBB0
:104490000365361955EB0C05A1FB034C4CF10003E9
:1044A000A0FB021C16EB0C06654153F10003094208
:1044B00018BF46F0010613F4007F0BD14FEA033119
:1044C0004FEA053041EA155140EA165034036FF0C7
:1044D00003020AE04FEAC3214FEAC52041EA5551E1
:1044E00040EA5650F4026FF0020202EB2E4201EB5A
:1044F000025585EACE710AD05FEA440C18BF24F059
:10450000004450F1000041F1000120EAD47040F273
:10451000FE7C624500D270BDA84214BF4FF08044BB
:104520004FF04044002E08BF0024BEF1806FA8BFAA
:10453000A1F1C041BDE8704080F2828001F1C0412C
:1045400001F000414FF0000070470CEA13159EEA9D
:104550000C0F18BF95EA0C0F06D081EA030E4FF03E
:1045600000000EF0004170BD00F01CF88900013E13
:1045700000F007B800F009B84FEA430C5FEA5C5C52
:1045800008D081EA030100F05BB84FEA410C5FEA12
:104590005C5CF6D102494FF0000070470000FF0755
:1045A0000000F87F0EF1020E2EF0030E5EF8046B91
:1045B000364205D4012A43EB030515F5001F12D836
:1045C000012841EB010C1CF5001F0CD80ED14FEA5D
:1045D000D17C0CEB4C0C0CF1020C15F5001F08BF44
:1045E0004CEBD37C04E04FF0080C01E04FEAD37CA5
:1045F0000CEB4C0526FA05F606F00706B6F1040C9E
:1046000006D20EEB860CBDE870404CF0010C604702
:10461000DFE80CF0090B02024FF00041A1F5002188
:104620004FF0000070BD19461046012851EB0104FF
:1046300018BFD4F5001484BF002001F0004170BD04
:104640000808A0F500114FEA3101704743004FEA16
:10465000D30C4FEA3C0C43401FBF40070CF16051A4
:1046600013F0FE4F70471CF0006F03D10CF00041B7
:10467000002070470CF0004343EA507040EACC0041
:1046800010B500F0F5F800BF000000924FEA0001FD
:10469000FFF7D6BF4FF00041A1F500214FF0000019
:1046A000704710B500F034F80CBF0120002010BD99
:1046B00010B500F02DF814BF0120002010BD10B57A
:1046C00000F06EF88CBF0120002010BD10B500F086
:1046D00067F82CBF0120002010BD10B500F094F841
:1046E00094BF0120002010BD10B500F08DF834BF3C
:1046F0000120002010BD401058BFC0F140404910BB
:1047000058BFC1F140418142EFF300807047000083
:1047100050EA010C00F113801CF5000F58BFBCF5E6
:10472000000F01D48842704707D710F5000F58BF1B
:1047300011F5000F15D488427047894270471CF567
:10474000000F04D5BCF5000FF7D5814270474FF03C
:10475000807C1CEB400F38BF1CEB410F01D2814223
:10476000704710B500F084F8922449004FF00050D3
:104770004FF08051FFF7BFBFB0FA80F310FA03F299
:10478000C3F19D030AD0D90501EB1220530638BFAF
:10479000704700F1010008BF20F0010070470000E1
:1047A00050EA010C00F113801CF5000F58BFBCF556
:1047B000000F01D48842704707D710F5000F58BF8B
:1047C00011F5000F15D488427047894270471CF5D7
:1047D000000F04D5BCF5000FF7D5814270474FF0AC
:1047E000807C1CEB400F38BF1CEB410F01D2814293
:1047F000704710B500F03CF8922449004FF080500B
:104800004FF00051FFF777BF50EA010C00F1138021
:104810001CF5000F58BFBCF5000F01D4884270474B
:1048200007D710F5000F58BF11F5000F15D48842B7
:104830007047894270471CF5000F04D5BCF5000F86
:10484000F7D5814270474FF0807C1CEB400F38BF9A
:104850001CEB410F01D28142704710B500F008F8FF
:10486000922449004FF000504FF08051FFF743BFB2
:104870000EF1020E2EF0030E5EF8044B244204D417
:104880004FEA4102B2F17F4F11D84FEA4003B3F132
:104890007F4F0CD80ED14FEAD07C0CEB4C0C0CF1B6
:1048A000020CB2F17F4F08BF4CEBD17C04E04FF01B
:1048B000080C01E04FEAD17C0CEB4C0324FA03F422
:1048C00004F00704B4F1040C06D20EEB840CBDE82E
:1048D00010404CF0010C6047DFE80CF007080202C2
:1048E0004FF00040A0F5800010BD0846420018BF00
:1048F000D2F1807288BF00F0004010BDFF2141EA74
:10490000D050C0057047FBF72EBE000002400000EB
:10491000000000A00000000005400000000000C8EA
:10492000000000000C4000000000409C000000005F
:10493000194000000020BCBE000000003440000010
:10494000BFC91B8E00000004B5400000504BCFD003
:104950006607E2CF010000006C4100003E8251AAD0
:10496000DFEEA73401000000D9420000DCB5A0E270
:104970003A301F97FFFFFFFFB4450000FD25A0C898
:10498000E9A3C14FFFFFFFFFFF3F000000000080D1
:1049900000000000FF3F0000000000800000000059
:1049A00000000000000000000102030406070809DF
:1049B000010202030405060708090A0B0C0D0E0F7D
:1049C0001010252E31660000084A00080000002063
:1049D0001000000028010008184A000810000020FC
:1049E000800D0000440100081C000000430000008E
:1049F000F8FFFFFF0C0000000E0000000F00000099
:104A00002E000000000000003200640001000000E1
:084A1000100000000024F40076
:04000005080000ED02
:00000001FF
